:100000006FC70000A5C70000A3C70000A1C700007C
:100010009FC700009DC700009BC7000099C7000054
:1000200097C7000095C7000093C700000C94D7083D
:100030008FC700000C94831D0C940D090C943A0991
:100040000C9467090C9494090C94C1090C94EE0962
:100050000C941B0A0C94480A0C94750A0C94A20A7E
:1000600077C7000075C7000073C7000071C70000A4
:100070006FC700006DC700006BC7000069C70000B4
:1000800067C7000065C7000063C7000061C70000C4
:100090005FC700005DC700005BC7000059C70000D4
:1000A00057C7000055C7000053C7000051C70000E4
:1000B0004FC700004DC700000C94AA1D0C94910C72
:1000C0000C94BE0C0C94EB0C0C94180D0C94450D78
:1000D0000C94720D0C949F0D0C94CC0D0C94F90D96
:1000E0000C94260E35C7000033C7000031C700004E
:1000F0002FC700002DC700002BC7000029C7000034
:1001000027C7000025C7000023C7000021C7000043
:100110001FC700001DC700001BC7000019C7000053
:1001200017C7000015C7000013C7000011C7000063
:100130000FC700000C94CF0A0C94FC0A0C94290BF6
:100140000C94560B0C94830B0C94B00B0C94DD0B9D
:100150000C940A0C0C94370C0C94640CF9C6000037
:10016000F7C60000F5C60000F3C60000F1C60000A7
:10017000EFC60000EDC60000EBC60000E9C60000B7
:10018000E7C60000E5C60000E3C60000E1C60000C7
:10019000DFC60000DDC60000DBC60000D9C60000D7
:1001A000D7C60000D5C60000D3C60000D1C60000E7
:1001B0000C94530E0C94800E0C94AD0E0C94DA0E2D
:1001C0000C94070F0C94340FC3C60000C1C6000086
:1001D000BFC60000BDC60000BBC600000C9402A84C
:1001E0000C9446A8B5C60000B3C60000B1C6000016
:1001F000AFC600000C949C250C94602689217721C1
:100200007A217D218021832186215B30453149314E
:100210004D315131B831BC315D3161316531BC3165
:1002200069316D3171317531333137315531593172
:100230007931813087308E3095309B30FD30FD3004
:10024000A930B030B730BE30C530CC30FD30D330FF
:10025000DA30E130FD30FD30E830EF30F630A230FA
:10026000943198319C31A031A431A831AC31B031F6
:10027000DD31E131E531E9315E325E325232563202
:100280005E325E325E325E325E325E325A32823BC5
:100290008D3B983B1C3C1C3C1C3C1C3C1C3C1C3CB3
:1002A0001C3C1C3C1C3C1C3C1C3C1C3C1C3C1C3C8E
:1002B0001C3CA33BAE3BB93B1C3C1C3C1C3C1C3CCB
:1002C0001C3C1C3C1C3C1C3C1C3C1C3C1C3CC43BC7
:1002D000CF3BDA3BE53B1C3C1C3C1C3C1C3C1C3C27
:1002E0001C3C1C3C1C3C1C3C1C3C1C3C1C3CF03B7B
:1002F0001C3C1C3C1C3C1C3C1C3C1C3C1C3C1C3C3E
:100300001C3C1C3C1C3C1C3C1C3C1C3C1C3CFB3B4F
:10031000063C113CF95AB95AC45AB95AD05AB95A7A
:10032000D65AE25AB95AE85AB95AB95AB95AB95AC0
:10033000B95AB95AB95AB95AB95AB95AB95AB95A25
:10034000B95AB95AB95AB95AB95AB95AB95AB95A15
:10035000B95AB95AB95AB95AB95AB95AB95AB95A05
:10036000B95AB95AB95AB95AB95AB95AB95AB95AF5
:10037000B95AB95AB95AB95AB95AB95AB95AB95AE5
:10038000B95AB95AB95AB95AB95AB95AB95AB95AD5
:10039000B95AB35AB95AF95AB95AC45AB95ACA5A6F
:1003A000D05AD65ADC5AB95AE25AB95AE85AB95A06
:1003B000B95AB95AB95AB95AB95AB95AB95AB95AA5
:1003C000B95AB95AB95AB95AB95AB95AB95AB95A95
:1003D000B95AB95AB95AB95AB95AB95AB95AB95A85
:1003E000B95AB95AB95AB95AB95AB95AB95AB95A75
:1003F000B95AB95AB95AB95AB95AB95AB95AB95A65
:10040000B95AB95AB95AB95AB95AB95AB95AB95A54
:10041000B95AB95AB35AB95AF95AB95AC45AB95AFF
:10042000CA5AD05AB95AD65AB95ADC5AB95AE25AA3
:10043000E85A51686A6883689C68B568E668176915
:100440002076537953795379537953795379537982
:1004500053795379C577527877789C78C1785379F6
:1004600053793079307930793079537953795379B8
:10047000537908782D78E6780B79E37AFF7F6380EB
:10048000E88043810084008461826783CA8439865E
:10049000D7866687F587AC88EB8BC589EB8BEB8BB2
:1004A000EB8B6E7FEB8BE788C28AEF8A2F8B3D8DBB
:1004B000F08CF78CFE8C058D0C8D138D1A8D218D93
:1004C000288D2F8D368D21924693B392C492D5926A
:1004D0003F924E9275928492939221922B922B92FC
:1004E0002B922B924693A292359235923592359269
:1004F00046934693469346932B922B922B922B92A4
:10050000B394C09460947194829493946094719421
:1005100082949394C796C796D296C7962297CA9606
:10052000CA96CD96CA96F098F897F897F098F897EB
:10053000F098F897F098F897F098F397F897F8975D
:10054000F397F897EE97F897F098F098F897EE975A
:10055000EE97C19DC79D7F9D879D8D9D939D9B9D82
:10056000A39DAD9D01A031A003A005A007A009A0F7
:100570000BA00DA00FA011A013A015A017A019A0EB
:100580001BA01DA01FA021A023A025A027A029A05B
:100590002BA02DA03CA062A03EA040A042A044A061
:1005A00046A048A04AA04CA04EA050A052A054A0E3
:1005B00056A058A05AA05CA05EA060A07BA380A318
:1005C0008CA38CA38CA38CA38CA38CA38CA38CA3B3
:1005D0008CA38CA38CA38CA38CA38CA38CA38CA3A3
:1005E0008CA38CA36EA38CA38CA38CA38CA3E7A257
:1005F0008CA38CA38CA38CA38CA38CA38CA38CA383
:1006000018A38CA38CA361A38CA3F8A28CA38CA3A6
:100610008CA38CA38CA38CA38CA38CA38CA38CA362
:100620008CA38CA36EA38CA38CA38CA38CA3E7A216
:100630008CA38CA38CA38CA38CA38CA38CA38CA342
:1006400018A38CA38CA361A38CA3F8A2B6A34FA577
:10065000D6A34FA54FA54FA54FA54FA54FA54FA575
:100660000FA44FA54FA54FA5BFA34FA50DA44FA500
:100670004FA54FA54FA54FA54FA54FA54FA54FA5DA
:100680004FA54FA54FA54FA54FA54FA5B6A34FA565
:10069000D6A34FA54FA54FA54FA54FA54FA54FA535
:1006A0000FA44FA54FA54FA5BFA34FA50DA44AA5C5
:1006B0004DA54FA54FA54FA54FA54FA54FA54FA59C
:1006C0004FA54FA54FA54FA54FA54FA54FA54FA58A
:1006D0004FA54FA54FA54FA54FA54FA54FA54FA57A
:1006E0004FA54FA54FA54FA54FA54FA54FA54FA56A
:1006F0004FA535A441A54FA54FA54FA51FA457A4AD
:100700004FA54FA54FA54FA54FA54FA54FA54FA549
:100710004FA54FA54FA54FA54FA54FA54FA54FA539
:100720004FA54FA54FA54FA54FA54FA54FA54FA529
:100730004FA535A441A54FA54FA54FA51FA457A46C
:100740002AA655A655A655A655A655A655A655A6FC
:1007500055A655A655A655A655A655A655A655A6C1
:1007600055A655A655A655A655A6E7A555A655A620
:10077000F0A5DCA555A655A655A62FA655A655A6A7
:1007800055A655A606A60DA609A655A61DA655A6AC
:1007900055A655A655A655A655A655A655A655A681
:1007A00055A655A655A655A655A6E7A555A655A6E0
:1007B000F0A5DCA555A655A655A62FA655A655A667
:1007C00055A655A606A60DA609A655A61DA684A63D
:1007D00060A760A760A760A757A794A68AA660A78E
:1007E0008CA688A660A760A760A760A760A760A77F
:1007F0008EA660A760A786A664A760A760A760A76B
:1008000060A760A760A760A760A760A760A760A7B0
:1008100060A760A760A760A757A794A68AA660A74D
:100820008CA688A660A760A760A760A760A760A73E
:100830008EA660A760A786A664A7A5A664A764A7DE
:1008400064A764A764A764A764A764A728A764A78C
:1008500064A764A7DFA6BFA664A764A764A764A76C
:1008600064A764A764A764A764A764A764A764A730
:1008700064A764A764A764A764A7A5A664A764A7E0
:1008800064A764A764A764A764A764A728A764A74C
:1008900064A764A7DFA6BFA6585659434320636FD9
:1008A0006C6F72696D657472792064617461004E59
:1008B0006F20636F6C6F72696D657472792064610B
:1008C000746100594342435220636F6C6F7220730E
:1008D0007061636500545620666F726D6174203DCF
:1008E0003E20524742206C696D69746564207261D4
:1008F0006E676500504320666F726D6174203D3EE7
:10090000205247422066756C6C2072616E676500EC
:1009100052474220636F6C6F722073706163650091
:10092000556E6B6E6F776E207265736F6C75746940
:100930006F6E00313430307831303530702F3630D2
:10094000487A207265647563656420626C616E6BC1
:10095000696E6700313430307831303530702F3681
:1009600030487A003133363078373638702F3630A9
:10097000487A005755584741203139323078313262
:100980003030702F3630487A005753584120313676
:1009900038307831303530702F3630487A0055474E
:1009A0004120313630307831323030702F36304897
:1009B0007A00535847412031323830783130323460
:1009C000702F3630487A003132383078393630700E
:1009D0002F3630487A005758474120313238307826
:1009E000373638702F3630487A005847412031303A
:1009F000323478373638702F3630487A00535647BD
:100A0000412038303078363030702F3630487A0018
:100A10005647412036343078343830702F363048DD
:100A20007A00313038307831393230702F363048F2
:100A30007A003139323078313038307035392F36EC
:100A400030487A00373230783438306935392F36CB
:100A500030487A00313932307831303830693539C0
:100A60002F3630487A0031323830783732307035AE
:100A7000392F3630487A0037323078343830703594
:100A8000392F3630487A006572726F6E656F7573F4
:100A9000206576656E7420666F72207374616E6473
:100AA000617264206576656E742063616C6C62614E
:100AB000636B005265706561746572207374617454
:100AC0006520352072656163686564003A2077723D
:100AD0006F6E672076616C756500417564696F2083
:100AE0006672657175656E63793A203A20313932E4
:100AF000206B487A00417564696F20667265717574
:100B0000656E63793A203A203137362E34206B48AF
:100B10007A00417564696F206672657175656E63F0
:100B2000793A203A203936206B487A004175646959
:100B30006F206672657175656E63793A203A203868
:100B4000382E32206B487A00417564696F206672D6
:100B5000657175656E63793A203A203438206B48A8
:100B60007A00417564696F206672657175656E63A0
:100B7000793A203A2034342E31206B487A0041757E
:100B800064696F206672657175656E63793A2033AA
:100B900032206B487A0063616C63756C6174696FB5
:100BA0006E206572726F7200417564696F204453E4
:100BB00054207061636B65747300417564696F20C4
:100BC0004F4241207061636B6574730041756469C5
:100BD0006F20484252207061636B657473004175E9
:100BE00064696F2073616D706C65207061636B6503
:100BF0007473004465657020636F6C6F72206D6F55
:100C000064653A2033362062697473004465657008
:100C100020636F6C6F72206D6F64653A20333020F3
:100C200062697473004465657020636F6C6F722035
:100C30006D6F64653A2032342062697473004156E6
:100C4000204D75746520696E616374697665004135
:100C500056206D757465206163746976650044562D
:100C60004920284F45535329206D6F646500454541
:100C70005353206D6F6465006E6F74204844435079
:100C800020656E6372797074656420004844435037
:100C900020656E6372797074656420004456492043
:100CA0006D6F64650048444D49206D6F6465004177
:100CB00075746F6D617469632064657465637469CC
:100CC0006F6E206F66207265736F6C7574696F6EDE
:100CD0003A20004175746F6D6174696320494E500C
:100CE00055542041204C4F434B4544006572726F70
:100CF0006E656F7573206576656E7420666F722001
:100D0000696E666F6672616D652063616C6C6261AD
:100D1000636B0047616D7574206D65746164617407
:100D200061207061636B65747320726563656976B9
:100D3000656400494E464F4652414D453A204D505C
:100D4000454720726563656976656400494E464F84
:100D50004652414D453A20415544207265636569CC
:100D60007665640057726F6E6720636F6C6F72698F
:100D70006D6574727900636F6C6F72696D65747202
:100D8000793A657874656E6465642028787659438D
:100D9000432900636F6C6F72696D657472793A49AB
:100DA000545537303900636F6C6F72696D657472BA
:100DB000793A534D505445203137304D202F20493A
:100DC000545536303100636F6C6F72696D657472A3
:100DD000793A4E6F20646174610057726F6E6720BC
:100DE000636F6C6F7220696E64696361746F720007
:100DF0004675747572650059436243722034343409
:100E00000059436243722034323200524742004359
:100E10006F6C6F722073706163653D004156493A93
:100E20002077726F6E67207061636B6574207479D0
:100E30007065202121210041564920526563656972
:100E40007665640041435020526563656976656448
:100E500000495352433220726563656976656400C8
:100E60004953524331207265636569766564004970
:100E70006E666F206672616D653A2000526563652B
:100E80006976657220413A0053776974636820700F
:100E9000726F626C656D004469676974616C2041B2
:100EA00043544956495459204445544543544544B4
:100EB000004469676974616C204143544956495440
:100EC00059204C4F535400556E6B6E6F776E3A201D
:100ED00000423A2000413A2000496E7075742000AB
:100EE000E3EEF3E3E370FF27ED51FC4C2FEF3FE51A
:100EF0002C7FE217F30758F48EED9DEAAEEBBFEEC0
:100F000081939193A193B193E217F307C8F311244E
:100F10001FBECFEFCDBFDFE5DEBF00E00CBF1EE29E
:100F2000A0E0B0E2EAE8F7E501E00BBF02C00790FD
:100F30000D92AC39B107D9F723E3ACE9BEE201C0A9
:100F40001D92A33EB207E1F70E94B02B0C94C3ABF5
:100F500057C8089580E0089530916133209162333D
:100F6000822F90E00397E1F431111CC0809165332A
:100F7000909166330497C1F48CE99EE280936733C5
:100F80009093683386ED97E080936B3390936C3346
:100F900084E090E08093693390936A3381E0089510
:100FA00080E0089580E0089580E00895089581E04C
:100FB0008093002F08950F931F9303EF17E020E411
:100FC00030E040EA5EE260E085E00E949D241F91EF
:100FD0000F9108951092042F1092022F81E08093B8
:100FE000002FE9CF0895811101C0E5CF08952CEAC3
:100FF00037E04CE850E262E07FE284E09FE232C0FA
:1010000008950F931F93CF932091002F222329F14E
:10101000CFB7F89420E2E0EEFEE2DF011D922A95C0
:10102000E9F720E2FC01A0EEBEE201900D922A95C4
:10103000E1F707ED17E020E230E040EE5EE260E02D
:1010400084E80E949D2491E089278093002FCFBFE0
:101050009091002F81E0892701C080E0CF911F91FE
:101060000F910895CF93DF93EA0140915F334423BA
:101070000CF063C0407609F041C020916033263007
:10108000E9F50E949E18FC012285213299F52091F4
:1010900062332132B9F49C01275F3F4F20936733BD
:1010A000309368338185209165333091663390E0C9
:1010B0002817390708F4C9018093693390936A337C
:1010C00081E064C0FC013785231316C0C0936733E9
:1010D000D09368332089318980916533909166334C
:1010E0002817390708F4C9018093693390936A334C
:1010F00081E04CC080E04AC080E048C04032E9F561
:1011000020916033223019F0233061F038C0809391
:1011100067339093683381E090E0809369339093D4
:101120006A3334C0609367337093683381E090E032
:101130008093693390936A3329C04076403209F531
:10114000409160334A3039F04B3059F04930D9F48E
:10115000F90119951BC020916233FC01208381E0C5
:1011600015C08091653390916633892B71F480911D
:101170006133FB01808381E009C080E007C080E02B
:1011800005C080E003C080E001C080E0DF91CF9126
:10119000089580E1E0E2F4E08183818184FDFDCF68
:1011A000E0E2F4E0648175818681978108951F9261
:1011B0000F920FB60F9211240BB60F922F933F93FD
:1011C0004F935F936F937F938F939F93AF93BF934F
:1011D000CF93DF93EF93FF93E0E2F4E01282C091AC
:1011E0003733D0913833209719F0D3DFFE011995AA
:1011F000FF91EF91DF91CF91BF91AF919F918F912F
:101200007F916F915F914F913F912F910F900BBE06
:101210000F900FBE0F901F9018951F920F920FB650
:101220000F9211240BB60F922F933F934F935F931E
:101230006F937F938F939F93AF93BF93EF93FF939E
:10124000E0914C2FF0914D2F309709F01995FF91B7
:10125000EF91BF91AF919F918F917F916F915F912E
:101260004F913F912F910F900BBE0F900FBE0F909B
:101270001F9018951F920F920FB60F9211240BB664
:101280000F922F933F934F935F936F937F938F931F
:101290009F93AF93BF93EF93FF93E0914A2FF09109
:1012A0004B2F309709F01995FF91EF91BF91AF91B6
:1012B0009F918F917F916F915F914F913F912F916E
:1012C0000F900BBE0F900FBE0F901F9018951F929E
:1012D0000F920FB60F9211240BB60F922F933F93DC
:1012E0004F935F936F937F938F939F93AF93BF932E
:1012F000EF93FF93E091482FF091492F309709F039
:101300001995FF91EF91BF91AF919F918F917F912F
:101310006F915F914F913F912F910F900BBE0F9066
:101320000FBE0F901F9018951F920F920FB60F923D
:1013300011240BB60F922F933F934F935F936F93AC
:101340007F938F939F93AF93BF93EF93FF93E0911E
:10135000462FF091472F309709F01995FF91EF91A3
:10136000BF91AF919F918F917F916F915F914F91BD
:101370003F912F910F900BBE0F900FBE0F901F90BB
:1013800018951F920F920FB60F9211240BB60F9261
:101390002F933F934F935F936F937F938F939F937D
:1013A000AF93BF93EF93FF93E091442FF091452FBC
:1013B000309709F01995FF91EF91BF91AF919F91EF
:1013C0008F917F916F915F914F913F912F910F90EE
:1013D0000BBE0F900FBE0F901F9018951F920F928B
:1013E0000FB60F9211240BB60F922F933F934F938A
:1013F0005F936F937F938F939F93AF93BF93EF937D
:10140000FF93E091422FF091432F309709F0199507
:10141000FF91EF91BF91AF919F918F917F916F91CC
:101420005F914F913F912F910F900BBE0F900FBE88
:101430000F901F9018951F920F920FB60F921124C4
:101440000BB60F922F933F934F935F936F937F93BE
:101450008F939F93AF93BF93EF93FF93E091402FB0
:10146000F091412F309709F01995FF91EF91BF91BD
:10147000AF919F918F917F916F915F914F913F912C
:101480002F910F900BBE0F900FBE0F901F901895CD
:101490001F920F920FB60F9211240BB60F922F933B
:1014A0003F934F935F936F937F938F939F93AF93EC
:1014B000BF93EF93FF93E0913E2FF0913F2F309732
:1014C00009F01995FF91EF91BF91AF919F918F9185
:1014D0007F916F915F914F913F912F910F900BBE34
:1014E0000F900FBE0F901F9018951F920F920FB67E
:1014F0000F9211240BB60F922F933F934F935F934C
:101500006F937F938F939F93AF93BF93EF93FF93CB
:10151000E0913C2FF0913D2F309709F01995FF9104
:10152000EF91BF91AF919F918F917F916F915F915B
:101530004F913F912F910F900BBE0F900FBE0F90C8
:101540001F9018951F920F920FB60F9211240BB691
:101550000F922F933F934F935F936F937F938F934C
:101560009F93AF93BF93EF93FF93E0913A2FF09146
:101570003B2F309709F01995FF91EF91BF91AF91F3
:101580009F918F917F916F915F914F913F912F919B
:101590000F900BBE0F900FBE0F901F9018951F92CB
:1015A0000F920FB60F9211240BB60F922F933F9309
:1015B0004F935F936F937F938F939F93AF93BF935B
:1015C000EF93FF93E091382FF091392F309709F086
:1015D0001995FF91EF91BF91AF919F918F917F915D
:1015E0006F915F914F913F912F910F900BBE0F9094
:1015F0000FBE0F901F9018951F920F920FB60F926B
:1016000011240BB60F922F933F934F935F936F93D9
:101610007F938F939F93AF93BF93EF93FF93E0914B
:10162000362FF091372F309709F01995FF91EF91F0
:10163000BF91AF919F918F917F916F915F914F91EA
:101640003F912F910F900BBE0F900FBE0F901F90E8
:1016500018951F920F920FB60F9211240BB60F928E
:101660002F933F934F935F936F937F938F939F93AA
:10167000AF93BF93EF93FF93E091342FF091352F09
:10168000309709F01995FF91EF91BF91AF919F911C
:101690008F917F916F915F914F913F912F910F901B
:1016A0000BBE0F900FBE0F901F9018951F920F92B8
:1016B0000FB60F9211240BB60F922F933F934F93B7
:1016C0005F936F937F938F939F93AF93BF93EF93AA
:1016D000FF93E091322FF091332F309709F0199555
:1016E000FF91EF91BF91AF919F918F917F916F91FA
:1016F0005F914F913F912F910F900BBE0F900FBEB6
:101700000F901F9018951F920F920FB60F921124F1
:101710000BB60F922F933F934F935F936F937F93EB
:101720008F939F93AF93BF93EF93FF93E091302FED
:10173000F091312F309709F01995FF91EF91BF91FA
:10174000AF919F918F917F916F915F914F913F9159
:101750002F910F900BBE0F900FBE0F901F901895FA
:101760001F920F920FB60F9211240BB60F922F9368
:101770003F934F935F936F937F938F939F93AF9319
:10178000BF93EF93FF93E0912E2FF0912F2F30977F
:1017900009F01995FF91EF91BF91AF919F918F91B2
:1017A0007F916F915F914F913F912F910F900BBE61
:1017B0000F900FBE0F901F9018951F920F920FB6AB
:1017C0000F9211240BB60F922F933F934F935F9379
:1017D0006F937F938F939F93AF93BF93EF93FF93F9
:1017E000E0912C2FF0912D2F309709F01995FF9152
:1017F000EF91BF91AF919F918F917F916F915F9189
:101800004F913F912F910F900BBE0F900FBE0F90F5
:101810001F9018951F920F920FB60F9211240BB6BE
:101820000F922F933F934F935F936F937F938F9379
:101830009F93AF93BF93EF93FF93E0912A2FF09183
:101840002B2F309709F01995FF91EF91BF91AF9130
:101850009F918F917F916F915F914F913F912F91C8
:101860000F900BBE0F900FBE0F901F9018951F92F8
:101870000F920FB60F9211240BB60F922F933F9336
:101880004F935F936F937F938F939F93AF93BF9388
:10189000EF93FF93E091282FF091292F309709F0D3
:1018A0001995FF91EF91BF91AF919F918F917F918A
:1018B0006F915F914F913F912F910F900BBE0F90C1
:1018C0000FBE0F901F9018951F920F920FB60F9298
:1018D00011240BB60F922F933F934F935F936F9307
:1018E0007F938F939F93AF93BF93EF93FF93E09179
:1018F000262FF091272F309709F01995FF91EF913E
:10190000BF91AF919F918F917F916F915F914F9117
:101910003F912F910F900BBE0F900FBE0F901F9015
:1019200018951F920F920FB60F9211240BB60F92BB
:101930002F933F934F935F936F937F938F939F93D7
:10194000AF93BF93EF93FF93E091242FF091252F56
:10195000309709F01995FF91EF91BF91AF919F9149
:101960008F917F916F915F914F913F912F910F9048
:101970000BBE0F900FBE0F901F9018951F920F92E5
:101980000FB60F9211240BB60F922F933F934F93E4
:101990005F936F937F938F939F93AF93BF93EF93D7
:1019A000FF93E091222FF091232F309709F01995A2
:1019B000FF91EF91BF91AF919F918F917F916F9127
:1019C0005F914F913F912F910F900BBE0F900FBEE3
:1019D0000F901F9018951F920F920FB60F9211241F
:1019E0000BB60F922F933F934F935F936F937F9319
:1019F0008F939F93AF93BF93EF93FF93E091202F2B
:101A0000F091212F309709F01995FF91EF91BF9137
:101A1000AF919F918F917F916F915F914F913F9186
:101A20002F910F900BBE0F900FBE0F901F90189527
:101A30001F920F920FB60F9211240BB60F922F9395
:101A40003F934F935F936F937F938F939F93AF9346
:101A5000BF93EF93FF93E0911E2FF0911F2F3097CC
:101A600009F01995FF91EF91BF91AF919F918F91DF
:101A70007F916F915F914F913F912F910F900BBE8E
:101A80000F900FBE0F901F9018951F920F920FB6D8
:101A90000F9211240BB60F922F933F934F935F93A6
:101AA0006F937F938F939F93AF93BF93EF93FF9326
:101AB000E0911C2FF0911D2F309709F01995FF919F
:101AC000EF91BF91AF919F918F917F916F915F91B6
:101AD0004F913F912F910F900BBE0F900FBE0F9023
:101AE0001F9018951F920F920FB60F9211240BB6EC
:101AF0000F922F933F934F935F936F937F938F93A7
:101B00009F93AF93BF93EF93FF93E0911A2FF091C0
:101B10001B2F309709F01995FF91EF91BF91AF916D
:101B20009F918F917F916F915F914F913F912F91F5
:101B30000F900BBE0F900FBE0F901F9018951F9225
:101B40000F920FB60F9211240BB60F922F933F9363
:101B50004F935F936F937F938F939F93AF93BF93B5
:101B6000EF93FF93E091182FF091192F309709F020
:101B70001995FF91EF91BF91AF919F918F917F91B7
:101B80006F915F914F913F912F910F900BBE0F90EE
:101B90000FBE0F901F9018951F920F920FB60F92C5
:101BA00011240BB60F922F933F934F935F936F9334
:101BB0007F938F939F93AF93BF93EF93FF93E091A6
:101BC000162FF091172F309709F01995FF91EF918B
:101BD000BF91AF919F918F917F916F915F914F9145
:101BE0003F912F910F900BBE0F900FBE0F901F9043
:101BF00018951F920F920FB60F9211240BB60F92E9
:101C00002F933F934F935F936F937F938F939F9304
:101C1000AF93BF93EF93FF93E091142FF091152FA3
:101C2000309709F01995FF91EF91BF91AF919F9176
:101C30008F917F916F915F914F913F912F910F9075
:101C40000BBE0F900FBE0F901F9018951F920F9212
:101C50000FB60F9211240BB60F922F933F934F9311
:101C60005F936F937F938F939F93AF93BF93EF9304
:101C7000FF93E091122FF091132F309709F01995EF
:101C8000FF91EF91BF91AF919F918F917F916F9154
:101C90005F914F913F912F910F900BBE0F900FBE10
:101CA0000F901F9018951F920F920FB60F9211244C
:101CB0000BB60F922F933F934F935F936F937F9346
:101CC0008F939F93AF93BF93EF93FF93E091102F68
:101CD000F091112F309709F01995FF91EF91BF9175
:101CE000AF919F918F917F916F915F914F913F91B4
:101CF0002F910F900BBE0F900FBE0F901F90189555
:101D00001F920F920FB60F9211240BB60F922F93C2
:101D10003F934F935F936F937F938F939F93AF9373
:101D2000BF93EF93FF93E0910E2FF0910F2F309719
:101D300009F01995FF91EF91BF91AF919F918F910C
:101D40007F916F915F914F913F912F910F900BBEBB
:101D50000F900FBE0F901F9018951F920F920FB605
:101D60000F9211240BB60F922F933F934F935F93D3
:101D70006F937F938F939F93AF93BF93EF93FF9353
:101D8000E0910C2FF0910D2F309709F01995FF91EC
:101D9000EF91BF91AF919F918F917F916F915F91E3
:101DA0004F913F912F910F900BBE0F900FBE0F9050
:101DB0001F9018951F920F920FB60F9211240BB619
:101DC0000F922F933F934F935F936F937F938F93D4
:101DD0009F93AF93BF93EF93FF93E0910A2FF091FE
:101DE0000B2F309709F01995FF91EF91BF91AF91AB
:101DF0009F918F917F916F915F914F913F912F9123
:101E00000F900BBE0F900FBE0F901F9018951F9252
:101E10000F920FB60F9211240BB60F922F933F9390
:101E20004F935F936F937F938F939F93AF93BF93E2
:101E3000EF93FF93E091082FF091092F309709F06D
:101E40001995FF91EF91BF91AF919F918F917F91E4
:101E50006F915F914F913F912F910F900BBE0F901B
:101E60000FBE0F901F9018951F920F920FB60F92F2
:101E700011240BB60F922F933F934F935F936F9361
:101E80007F938F939F93AF93BF93EF93FF93E091D3
:101E9000062FF091072F309709F01995FF91EF91D8
:101EA000BF91AF919F918F917F916F915F914F9172
:101EB0003F912F910F900BBE0F900FBE0F901F9070
:101EC00018951F93CF93DF93CDB7DEB7C259D109D1
:101ED000CDBFDEBFCE0101968093D1209093D2205A
:101EE00043E050E060E280E096E0B4D348E150E0A7
:101EF00068E080E696E0AED380914E2F811130C02D
:101F000080EF99E4A2E0B0E0C657DF4F8883998361
:101F1000AA83BB83CA58D04088E4CE56DF4F88835B
:101F2000C259D0408BE490E0A0E0B0E0C257DF4F50
:101F300088839983AA83BB83CE58D04060E483E032
:101F400032D3BE0166577F4F80E894E00E94D11DD6
:101F5000811104C081E080934E2F02C080E009C24D
:101F600080E2E0E0F6E0868380E090E00196803E4B
:101F70002EE29207D9F780E2E0E0F6E0858380E880
:101F80009AE1A6E0B0E00197A109B1090097A10587
:101F9000B105C9F725E6E0E6F6E00AC0215009F4EC
:101FA000C5C180E090E00196803A3FE09307D9F701
:101FB000808583FDF3CF1092CF201092D02082E055
:101FC00090E08093D3209093D42041E06BEC70E2BA
:101FD00080E894E00E94E61D8111AAC181E080930F
:101FE000CC2082E090E08093CF209093D0208EE1AF
:101FF00090E08093D3209093D42010E0E0E6F6E0C8
:102000000BC01F5F153609F495C180E090E0019682
:10201000803A2FE09207D9F7808583FFF2CF41E025
:102020006BEC70E280E894E00E94E61D811184C1AF
:1020300080E090E00196803E3EE29307D9F789E187
:10204000E0E1F2E2DE015F9601900D928A95E1F700
:10205000BE01685C7F4F8BE0FB0111928A95E9F726
:1020600088E488AF85E089AF82E090E08CAF9DAFD7
:10207000CE014F968EAF9FAF89E190E022968EAF52
:102080009FAF229740E080E894E00E94E61D811116
:1020900055C1CE018D5B9F4F22E1E9E2F2E2DC0106
:1020A00001900D922A95E1F725E029AF1AAE22E0C2
:1020B00030E02CAF3DAF28E428AF8EAF9FAF82E178
:1020C00090E022968EAF9FAF229740E0BE01685C01
:1020D0007F4F80E894E00E94E61D811131C1CE015E
:1020E0008B5A9F4F25E0EBE3F2E2DC0101900D9269
:1020F0002A95E1F78EAF9FAF85E090E022968EAFF4
:102100009FAF229740E0BE01685C7F4F80E894E07B
:102110000E94E61D811116C1CE01865A9F4F2CE008
:10212000E0E4F2E2DC0101900D922A95E1F725E06E
:1021300029AF1AAE22E030E02CAF3DAF28E428AF43
:102140008EAF9FAF8CE090E022968EAF9FAF22972C
:1021500040E0BE01685C7F4F80E894E00E94E61D8D
:102160008111F2C0E0E6F6E00BC01F5F153608F003
:10217000EDC080E090E00196803A2FE09207D9F719
:10218000808583FDF2CF1092CF201092D02086E080
:1021900090E08093D3209093D42041E06BEC70E2E8
:1021A00080E894E00E94E61D8111D2C0CE018A59D8
:1021B0009F4F22E1ECE4F2E2DC0101900D922A95BE
:1021C000E1F725E029AF1AAE22E030E02CAF3DAFB9
:1021D00028E428AF8EAF9FAF82E190E022968EAFC9
:1021E0009FAF229740E0BE01685C7F4F80E894E09B
:1021F0000E94E61D8111AEC0E0E6F6E00BC01F5F55
:10220000153608F0A9C080E090E00196803A3FE0E2
:102210009307D9F7808583FDF2CF1092CF201092DB
:10222000D02086E090E08093D3209093D42041E0AA
:102230006BEC70E280E894E00E94E61D81118EC094
:10224000CE0188589F4F22E1EEE5F2E2DC010190D9
:102250000D922A95E1F725E029AF1AAE22E030E091
:102260002CAF3DAF28E428AF8EAF9FAF82E190E066
:1022700022968EAF9FAF229740E0BE01685C7F4FF1
:1022800080E894E00E94E61D81116AC0E0E6F6E075
:102290000BC01F5F153608F065C080E090E0019626
:1022A000803A2FE09207D9F7808583FDF2CF109214
:1022B000CF201092D02086E090E08093D32090939E
:1022C000D42041E06BEC70E280E894E00E94E61DCF
:1022D00081114AC01092CF201092D02086E090E069
:1022E0008093D3209093D42041E06BEC70E280E89F
:1022F00094E00E94E61D811139C01092CF20109207
:10230000D02086E090E08093D3209093D42041E0C9
:102310006BEC70E280E894E00E94E61D811128C019
:1023200081E08093393310923A3323C080E021C09A
:1023300080E01FC080E01DC080E01BC080E019C0AD
:1023400080E017C080E015C080E013C080E011C0BD
:1023500080E00FC080E00DC080E00BC080E009C0CD
:1023600080E007C080E005C080E003C080E001C0DD
:1023700080E0CE56DF4FCDBFDEBFDF91CF911F9102
:102380000895CF93DF93CDB7DEB76097CDBFDEBFA3
:10239000E0E6F6E0808583FD2EC01092CF201092FB
:1023A000D02080E190E08093D3209093D420CE0180
:1023B00001968093D1209093D22041E06BEC70E2A3
:1023C00080E894E00E94E61D8C8180933A3388E097
:1023D000FE013796ABE3B3E301900D928A95E1F7E6
:1023E000E0E6F6E0808583FFFDCF89E393E30E947A
:1023F000010881E001C080E06096CDBFDEBFDF91C3
:10240000CF910895CF93DF93CDB7DEB7E797CDBFD8
:10241000DEBF26E1E0E7F2E2CE010196DC010190A9
:102420000D922A95E1F7BE01695E7F4F2BE0FB011B
:1024300011922A95E9F728E42F8B25E0288F22E0D6
:1024400030E02B8F3C8F8D8F9E8F86E190E08F8FB9
:1024500098A340E080E894E00E94E61D81112AC024
:1024600086E1E6E8F2E2DE01929601900D928A950D
:10247000E1F785E0888F198E82E090E08B8F9C8F4A
:1024800088E48F8BCE0182968D8F9E8F86E190E0BF
:102490008F8F98A340E0BE01695E7F4F80E894E093
:1024A0000E94E61D811108C081EC92E20E94612722
:1024B00081E003C080E001C080E0E796CDBFDEBFD1
:1024C000DF91CF910895CF93DF9300D01F92CDB7C6
:1024D000DEB78FEF8093700080937100809372005D
:1024E00080937300809374008093750080937600CE
:1024F00064E081E490E00E94B71B6CE170E082E050
:102500000E94941C8A836DE170E082E00E94941C1A
:10251000898389819A81019621F480E493E28983F9
:102520009A8389819A818B839C83E0E6F0E08283A1
:102530008C8183838FB7F894E0E5F0E0908192601E
:1025400090838FBF818181FFFDCF8FB7F894A0E585
:10255000B0E016969C911697997F16969C931697C5
:10256000E0E6F0E090E895839BEB968316969C91CD
:102570001697946016969C939081916090838FBF7C
:1025800061E080E490E00E94B71B8FB7F894E0E52B
:10259000F0E090819E7F90838FBF2496CDBFDEBFF9
:1025A000DF91CF9108959FB7F894E82FF0E0E059BC
:1025B000FF4F60958081682360839FBF08959FB718
:1025C000F894E82FF0E0E059FF4F8081682B60839A
:1025D0009FBF0895863011F468E101C060E0E0E536
:1025E000F0E0818181FD24C08FB7F89490819260E2
:1025F00090838FBF818181FFFDCF8FB7F894A0E5D5
:10260000B0E016969C911697997F16969C93169714
:10261000E0E6F0E090E895839BEB968316969C911C
:102620001697946016969C939081916090838FBFCB
:10263000636084E490E00E94B71B60E480E0B3CF65
:10264000089560E480E0BBDF60E084E490E00C94F7
:10265000B71B0895CF93DF93FC01709620E030E024
:10266000C62FD0E0DE01022E02C0B595A7950A94D0
:10267000E2F7A0FD50832F5F3F4F319628303105A0
:1026800089F740FF0AC041FF03C0FC01658302C017
:10269000FC016683FC01618302C0FC016283DF915F
:1026A000CF910895CF93DF93EC01C03C28E0D2078F
:1026B00021F468E083E077DF06C0803C994019F49C
:1026C00068E084E070DF888180618883DF91CF914A
:1026D0000895FF920F931F93CF93DF93EC01F42E95
:1026E000B901A80100E016E32EE631E00E949E1C2D
:1026F00088234CF088819F2D990F990F9C70837FC0
:10270000F92EF82AF882DF91CF911F910F91FF9057
:102710000895FB018081E82FE695E695E69540E275
:10272000E49FF0011124FA5F877021E030E0A901F5
:1027300002C0440F551F8A95E2F746830895FB01B6
:102740008081E82FE695E695E69540E2E49FF0016A
:102750001124FA5F877021E030E0A90102C0440F24
:10276000551F8A95E2F745830895089508950895C1
:102770000895089508950895089508950895089571
:10278000089580916630815080936630089580E08E
:10279000089580E0089565E770E380E00C947BA7DE
:1027A000089510926630109272301092733081EA60
:1027B0008093683080E28093693010926A30109282
:1027C0006B3010926C3010926D3082E090E080930C
:1027D0006E3090936F30109270301092713080E0B4
:1027E00092ECA1E0B0E08093753090937630A093A6
:1027F0007730B09378301092793010927A3088E048
:1028000080937B3065E770E380E00E947BA780E0E7
:102810000E94282C882329F0909166309F5F909326
:1028200066300895FF920F931F93CF93DF938091AB
:10283000532F81119CC00E94DE23882351F0C09148
:10284000542FD091552F0E94EB23C817D90759F464
:102850008EC0C091542FD091552F0E94E623C817E7
:10286000D90709F484C0DFB7F894C091562FEC2F34
:10287000F0E0EE0FFF1FE95AF04D80819181892B26
:1028800009F58091502F9091512F01968093502FF0
:102890009093512F0E94DE23811107C08091502F09
:1028A0009091512F8436910558F00E94DE238823A1
:1028B00049F08091502F9091512F8032934010F425
:1028C000DFBF55C01092502F1092512F8091522F80
:1028D000811106C081E0C11180E08093562F04C0B1
:1028E00081E0C11180E0C82F81E08093532FDFBFCA
:1028F000D0E0FE01EE0FFF1FE95AF04DFF24F394E4
:10290000808191818034910509F4F12CFF2091F0B0
:102910000E94DE23882339F00E94EB238093542FFA
:102920009093552F0BC00E94E6238093542F9093D1
:10293000552F04C01092542F1092552FFE01EE0F08
:10294000FF1FE95AF04D20813181AE0100245695D8
:1029500047950794569547950794542F402D445A10
:10296000504D0DEB14E16F2D81E80E949D24DF9105
:10297000CF911F910F91FF900895811115C0209163
:10298000562F81E090E0222311F080E090E0FC01DE
:10299000EE0FFF1FE95AF04D108211821092522F54
:1029A0001092532F80E03ECF089580E03BCF0895F2
:1029B0000F931F93862F9091743091111EC04091F8
:1029C00072305091733020917030309171304217D5
:1029D000530799F02091723030917330209370300A
:1029E0003093713000E215E12AE030E048E650E330
:1029F00060E00E949D24809374301F910F91089590
:102A00002FB7F894662359F080917230909173300B
:102A1000482B592B40937230509373300CC08091E7
:102A200072309091733040955095482359234093CC
:102A30007230509373302FBF63E880E0B9CF0895B0
:102A400010927430809172309091733083788093BB
:102A5000723090937330E0E7F0E380819181837866
:102A600080839183642F80E0A3CF089580916530A7
:102A7000815080936530809165300E942F2C109298
:102A80006430089580915F338823ECF4807680323F
:102A900009F045C080916033813209F042C08091D5
:102AA0006533909166330797F1F585E790E380935E
:102AB00067339093683387E090E080936933909315
:102AC0006A3381E008958076803279F580916033B1
:102AD000803219F08232D9F02AC08091653390910A
:102AE0006633079731F58BEC93E180936B339093CA
:102AF0006C3385E790E3809367339093683387E086
:102B000090E08093693390936A3381E008956091F7
:102B10006133617080E00E94342C81E0089580E090
:102B2000089580E0089580E0089580E0089580E0B1
:102B3000089580E0089540E150E061E080E060CFDA
:102B4000089540E450E061E080E05ACF08954FB727
:102B5000F8942091DD2F3091DE2FE091DF2FF0E00F
:102B6000EE0FFF1FE052F04D80819181821B930B8D
:102B70004FBF0895ECDF21E0892B09F420E0822F7C
:102B800008950F931F93CF93DF934FB7F89450910D
:102B9000DF2F8091DC2F811110C02091DD2F30912B
:102BA000DE2FC52FD0E0FE01EE0FFF1FE052F04DEB
:102BB000808191812817390718F44FBF80E028C021
:102BC0001092DD2F1092DE2F81E0511180E0809372
:102BD000DF2F81E08093DC2F4FBF80E0CBDF8823A5
:102BE00019F080E00E94FAA7AE010024569547959F
:102BF0000794569547950794542F402D4C51504DAE
:102C00000FE316E120E430E061E082E00E949D24C1
:102C1000DF91CF911F910F9108951092653010921E
:102C2000532F1092522F1092562F1092572F10920E
:102C3000582F1092592F10925A2F1092542F1092F1
:102C4000552F80E0EFDD1092DC2F1092DF2F1092D5
:102C5000E02F1092E12F1092DD2F1092DE2F80E0F6
:102C600090DF882359F0909165309F5F9093653095
:102C700090916530913011F49093643008950F93E2
:102C80001F93942F811129C08091DF2FE1E08111E2
:102C9000E0E061157105B1F4F0E00024F695E795E8
:102CA0000794F695E7950794FE2FE02DAF014C5160
:102CB000504D0FE316E120E430E061E0892F0E94DF
:102CC0009D240BC0F0E0EE0FFF1FE052F04D60833B
:102CD00071831092DC2F80E054DF1F910F910895D3
:102CE00080E048CF08951F93CF93DF9311E0809148
:102CF0007B30893009F010E060E070E03FB7F89475
:102D00008091DD2F9091DE2F2091DF2F3FBF30E0AB
:102D1000F901EE0FFF1FE052F04D40815181841701
:102D2000950730F0809164308111E8CF90E020C0A9
:102D3000F9010024F695E7950794F695E795079431
:102D4000FE2FE02DE80FF91FEC51F04D2081EB0133
:102D5000C22B01968093DD2F9093DE2F80E011DF50
:102D6000112321F07C2F662710E0C8CF8C2F9D2FD8
:102D7000DF91CF911F91089580E0B5CF08955FB79F
:102D8000F8942091562FE22FF0E0EE0FFF1FE95A42
:102D9000F04D8081918141E0211140E0E42FF0E08D
:102DA000EE0FFF1FE95AF04D2081318180349105EB
:102DB00089F46091532F61110DC06091522F611100
:102DC00009C081E08093522F4093562F20E430E0D9
:102DD00080E090E05FBF280F391F80E890E0821B01
:102DE000930B0895CCDF21E0892B09F420E0822F9A
:102DF000089580E0F7CF08951F93CF93DF93162FA8
:102E0000C72FD1E080917B30893009F0D0E080E09D
:102E1000E9DF811107C0809164308111F8CF80E033
:102E200090E02BC06FB7F8942091562F30E0F90155
:102E3000EE0FFF1FE95AF04D80819181AC014F5F89
:102E40005F4F40835183F9010024F695E79507947D
:102E5000F695E7950794FE2FE02D8E0F9F1FFC013E
:102E6000E45AF04D10836FBFDD2329F01C2FCC0FE7
:102E7000CC0BD0E0CCCF81E090E0DF91CF911F91DF
:102E80000895BC0180E0B8CF08957F928F929F9201
:102E9000AF92BF92CF92DF92EF92FF920F931F9368
:102EA000CF93DF936B018A0180917B30893011F4DD
:102EB000000F111F6894AA24A6F8B12C80E092DFBD
:102EC000811107C0809164308111F8CF802F912F3C
:102ED00038C07FB6F8948090562F912CF401EE0FF5
:102EE000FF1FE95AF04DE080F180C5018E199F095E
:102EF000E8018017910708F4EC01C40100249695BD
:102F000087950794969587950794982F802D8E0D19
:102F10009F1DAE01B601845A904D0E94CEA8F401C7
:102F2000EE0FFF1FE95AF04DEC0EFD1EE082F1821C
:102F30007FBECC0EDD1E0C1B1D0B09F0BFCF80E049
:102F400090E0DF91CF911F910F91FF90EF90DF9074
:102F5000CF90BF90AF909F908F907F900895AB01DE
:102F6000BC0180E092CF0895E0918130F0918230F1
:102F70000190F081E02D228133812E0F3F1FFC0153
:102F80004081E40FF11DE217F307A0F48181843042
:102F9000A1F0861306C014C081818430A1F0861789
:102FA000A9F08081E80FF11DE217F307A8F380E094
:102FB00090E0089580E090E0089580E090E008952A
:102FC0008E2F9F2F089580E090E008958E2F9F2FE1
:102FD0000895809161338F770C94E0230895909148
:102FE0008330992381F1E0918130F091823001901A
:102FF000F081E02D9481891740F5E0937F30F093C4
:103000008030228133812E0F3F1FE217F307F8F43F
:103010009181943061F49281981309C09381961341
:1030200006C0E0937F30F093803081E00895908176
:10303000E90FF11DE217F30758F3E0937F30F093A7
:10304000803080E0089580E0089580E0089580E079
:103050000895FF920F931F93CF93DF93C82F60E0E3
:10306000BEDFF82E882381F1A0918130B0918230AB
:10307000EC2FF0E0EE0FFF1F12962D913C9113976D
:10308000E20FF31F00811181D8011696ED91FC919A
:1030900017971995682F8C2FA2DFF82E8823A1F09F
:1030A000C0917F30D091803065E0CE015DDFEC01D2
:1030B000009721F08A810E945E25F6CFD8011296F2
:1030C000ED91FC91139719958F2DDF91CF911F9161
:1030D0000F91FF9008951F93CF93DF93182F7FDFF9
:1030E000882341F1C0917F30D091803065E0CE01DE
:1030F0003BDFEC01009749F04C815D816B818A8157
:103100000E94F7238111F2CF15C0A0918130B091B8
:103110008230812F90E0880F991F1296ED91FC91DB
:103120001397E80FF91F0190F081E02D0190F081D5
:10313000E02D1995DF91CF911F91089580917F30F7
:103140009091803008950C9468230895CF938091D6
:1031500083308823C1F0E0918130F091823001907A
:10316000F081E02D8481882371F0C0E08C2F71DF25
:10317000CF5FE0918130F09182300190F081E02DBD
:103180008481C81798F31092833081E090E0809397
:10319000843090938530CF9108950E942B23D6CF11
:1031A0000895CF9380918330882341F1E09181305D
:1031B000F0918230A081B18114968C918823F1F036
:1031C000C0E08C2F90E0880F991F0280F381E02DE2
:1031D000E80FF91F0190F081E02D0084F185E02DCA
:1031E000309709F01995CF5FE0918130F0918230EE
:1031F000A081B18114968C91C81718F3CF910895CE
:10320000EF92FF920F931F93CF93DF931092693346
:1032100010926A3310926B3310926C3310926D33AC
:1032200010926E3320915F3322230CF085C280917F
:10323000653390916633009709F083C279C22F718C
:1032400009F0A4C030916033363089F0383009F489
:1032500091C031119BC0029741F462E070E084E8B4
:1032600090E30E94EE2301E0E6C100E0E4C120917A
:10327000613330916233832F99278230910581F039
:103280008330910579F1019709F06CC0809100209D
:1032900090910120DC016C9170E00E94EE2351C0FE
:1032A000E0910020F09101208189281708F05CC08E
:1032B000C9019927880F991F880F991FE091022053
:1032C000F0910320E80FF91F80819181FC01628158
:1032D00073810E94EE23E0916733F091683382E0BE
:1032E00081832FC033272130310589F048F0223007
:1032F000310509F42BC22330310509F42BC236C045
:1033000064E070E088E091E20E94EE231AC08FEF43
:1033100090E227E0382FACEEB0E2E82FF92F819150
:1033200090E08D939D938E2F831B8217C0F3220F05
:1033300062E0620F6093EA2070E08AEE90E20E9401
:10334000EE238091653390916633209169333091FB
:103350006A338217930760F48093693390936A33DA
:1033600001E069C100E067C100E065C100E063C140
:1033700001E061C1019741F461E070E083E890E30E
:103380000E94EE2301E057C100E055C1213009F051
:1033900040C0309160333A30E1F50197A1F580915A
:1033A0008330882391F1C0916333D0916433E090EE
:1033B0008130F0908230D701ED91FC918481C81763
:1033C00030F560E08C2F0BDE082F882309F433C121
:1033D000CE019927880F991FD7011296ED91FC9184
:1033E0001397E80FF91F0190F081E02D0680F78117
:1033F000E02D199580937E3061E070E08EE790E3D8
:103400000E94EE2318C100E016C100E014C100E0E4
:1034100012C1223009F011C120916033211106C17F
:10342000029789F4809163330E94582490E080933E
:103430007C3090937D3062E070E08CE790E30E94F6
:10344000EE2301E0F8C000E0F6C02F7109F091C052
:1034500080916033833009F4EBC018F48130B1F00F
:1034600088C0853019F0893061F183C0809165335F
:1034700090916633892B41F489EE97E180936B3309
:1034800090936C3301E0D7C000E0D5C080916533E4
:1034900090916633892B89F48091613390916233E6
:1034A000019769F480918430909185308D7F80936D
:1034B00084309093853001E0BEC000E0BCC000E0E5
:1034C000BAC08091653390916633892B09F047C06B
:1034D0000E94E323882309F444C020916133309192
:1034E00062333327E0910020F0910120818990E040
:1034F00082179307C0F12ADE809161339091623385
:1035000080938330882389F199278150904C880FCC
:10351000991F880F991FE0910220F0910320E80F76
:10352000F91FE0938130F09382300190F081E02D1B
:1035300084818823E1F0C0E060E08C2FCCDD082F8F
:10354000882309F478C0CF5FE0918130F091823018
:103550000190F081E02D8481C81770F36CC000E009
:103560006AC000E068C000E066C001E064C001E03D
:1035700062C0213009F5809160338B30E9F480918D
:10358000653390916633892B99F480918330882339
:1035900089F0C0916333D09161338C2F5ADD082FAD
:1035A000882309F448C06D2F8C2F95DD082F43C068
:1035B00000E041C000E03FC0223009F03EC08091F1
:1035C0006033813019F08330B9F034C080916533B5
:1035D00090916633892B61F48091613390916233CD
:1035E000892B41F4809163330E947324082F23C0F8
:1035F00000E021C000E01FC08091653390916633E8
:10360000892B81F48091613390916233892B61F42D
:10361000C3E6D3E388810E94252588810E947B250B
:10362000082F09C000E007C000E005C000E003C0AB
:1036300000E001C000E0011191C080915F338F7103
:103640008130C1F5809183308823A1F1C09163332B
:10365000D09164330091813010918230D801ED9186
:10366000FC918481C81730F560E08C2FB8DC88238A
:1036700009F1CE019927880F991FD8011296ED9173
:10368000FC911397E80FF91F00811181D80116965C
:10369000ED91FC9117971995682F8C2FA0DC88234A
:1036A00049F0D8011496ED91FC9115971995082FC2
:1036B000811154C080915F338F718230D9F5809130
:1036C0008330882389F1E0918130F0918230A081AC
:1036D000B18114968C91882349F110E0212F30E0BC
:1036E000220F331F0280F381E02DE20FF31FC08110
:1036F000D181EE81FF811995682F812F70DC082F11
:10370000882361F1EC81FD811995082F811126C074
:103710001F5FE0918130F0918230A081B1811496D9
:103720008C911817D8F21AC000E018C000E016C03B
:1037300000E014C000E012C0822F807609F07DCF37
:1037400084CE322F307609F078CF79CD24E08AEF1D
:1037500090E2E0CD27E080ED92E2DCCD802FDF919A
:10376000CF911F910F91FF90EF90089508951BBE88
:10377000FC0128ED24BF60830895E0ECF1E027858B
:103780002223ECF3ECECF1E0208128602083DC01C3
:10379000B05F8C919081977F90830895E0ECF1E089
:1037A00087858823ECF3E0ECF1E0878581FF06C094
:1037B00086E3828761E08BEC91E0D9CF0895E0EC5D
:1037C000F1E097859923ECF3ECECF1E090819860BF
:1037D0009083A82FB0E0B05F6C938081877F808357
:1037E0000895FF920F931F93CF93DF93182FF92E15
:1037F000C62FE0ECF1E00285D1DFE0ECF1E02785B7
:103800002223ECF36C2F812FDADFC0ECD1E01A8297
:10381000F982188385E38A8761E08BEC91E0A7DF6A
:103820000A87DF91CF911F910F91FF900895EF923A
:10383000FF920F931F93CF93DF938C01E0ECF1E0A5
:1038400087858823ECF3780180E2E80EF11CE8011B
:103850008C2F801B6991B3DFCE15DF05C9F7DF918F
:10386000CF911F910F91FF90EF9008951F93CF93E9
:10387000DF93E0ECF1E097859923ECF320E2829F5F
:10388000C0011124C0ECD1E01A82998388831A8583
:1038900085E38A8761E08BEC91E069DF1A87DF912D
:1038A000CF911F910895CF92DF92EF92FF920F93E5
:1038B0001F93CF93DF93EC017B018A0141155105E2
:1038C00051F1CE018F719927892BB1F40032110586
:1038D00098F0C701ACDFCE019695879592958295B9
:1038E0008F7089279F708927C1DFA09680E2E80E3C
:1038F000F11C005211090CC06E01EFEFCE1ADE0A66
:10390000F70161917F01CE016CDF01501109E601E1
:1039100001151105B1F6DF91CF911F910F91FF9025
:10392000EF90DF90CF9008954091CA01E62FF72FD6
:103930008093CA0184914093CA010895CF92DF9287
:10394000EF92FF920F931F93CF93DF93EC016A01E5
:103950007B01DB01CA010197A109B109BC01CD01BD
:10396000600F711F821F931FA70196010E9499A8E3
:103970002138310541055105F8F4213460F4213234
:1039800060F4213160F4293060F4253060F4233094
:1039900060F090E00BC093E009C092E007C092E8AD
:1039A00005C091E003C091E801C090E888818C7760
:1039B000892B888381E001C08FEFDF91CF911F9128
:1039C0000F91FF90EF90DF90CF900895CF93DF930A
:1039D000E0918630F0918730848183FF08C0886051
:1039E000848383E0838386EF8093903089C0982F0F
:1039F000947131F083E083838FEF8093903080C0A7
:103A000086FF45C0A0918830B091893080918A307E
:103A100090918B3014962D913C91159782179307B6
:103A20006CF49C012F5F3F4F20938A3030938B3092
:103A3000A80FB91F11968C91878362C080918C303A
:103A400090918D3018962D913C911997821793077C
:103A5000C8F420918E30222321F0868181608683F4
:103A60004FC016962D913C911797AC014F5F5F4F59
:103A700040938C3050938D30D901A80FB91F8C9191
:103A800087833EC083E083831092903039C08823BF
:103A9000A4F5A0918830B091893080918C309091BC
:103AA0008D3018962D913C91199782179307F8F451
:103AB00016964D915C9117979C012F5F3F4F209375
:103AC0008C3030938D306781EA01C80FD91F68832D
:103AD00018968D919C9119972817390718F482E050
:103AE00083830EC087E083831092903009C083E007
:103AF000838389EF8093903003C08BEF8093903065
:103B0000DF91CF9108951F920F920FB60F9211245B
:103B10000BB60F922F933F934F935F936F937F93C7
:103B20008F939F93AF93BF93EF93FF934FDFFF91DB
:103B3000EF91BF91AF919F918F917F916F915F9125
:103B40004F913F912F910F900BBE0F900FBE0F9092
:103B50001F9018951F920F920FB60F9211240BB65B
:103B60000F922F933F934F935F936F937F938F9316
:103B70009F93AF93BF93EF93FF9328DFFF91EF9154
:103B8000BF91AF919F918F917F916F915F914F9175
:103B90003F912F910F900BBE0F900FBE0F901F9073
:103BA0001895FC01DB0114968C91858388EB818349
:103BB00081E0848310928F3010929030E0EAF0E040
:103BC000828182608283789480E00895009709F46E
:103BD00053C06115710509F451C0FB013285209174
:103BE0008F3002C031114CC02111FCCF2FB7F89497
:103BF00031E030938F3030E8309390302FBF809396
:103C0000863090938730609388307093893010921B
:103C10008A3010928B3010928C3010928D304093FD
:103C20008E30FB012081522F550F24813581232BAB
:103C300011F4411103C0FC01568303C05160FC0123
:103C40005683E0E9F0E380818038E9F3E091863043
:103C5000F091873084818370813049F0A6E8B0E329
:103C6000ED91FC911197848183708130C9F7809127
:103C7000903010928F30089588EF089588EF08955E
:103C800086EF0895FC01818185FFFDCF608380E090
:103C900090E00895FC0181818823ECF780810895EC
:103CA0004F925F926F927F928F929F92AF92BF924C
:103CB000CF92DF92EF92FF920F931F93CF93DF93F8
:103CC000EC014A015B0128013901D901C80168945E
:103CD00012F8B695A795979587951694D1F7B901DF
:103CE000A801032E36E176956795579547953A9545
:103CF000D1F7302D2C8122FD08C0B695A795979558
:103D00008795769567955795479588159905AA05DE
:103D1000BB0508F4A6C084169506A606B70608F4E7
:103D2000A2C08C8182FD04C0880C991CAA1CBB1CFB
:103D3000C301B201A50194010E9499A82F3F31054A
:103D40004105510508F491C0C12CD12C7601CA94CB
:103D500019EF05C02C153D054E055F0568F0CC0C2C
:103D6000DD1CEE1CFF1C1D3F14F46894C0F81F5F9F
:103D7000173081F7212F50C0212F11230CF04CC098
:103D8000D501C401880F991FAA1FBB1F880F991F57
:103D9000AA1FBB1F880F991FAA1FBB1F481A590AC9
:103DA0006A0A7B0A1E3FF4F46DEF7FEF611B710915
:103DB00017FD739504C0440C551C661C771C6A954E
:103DC000D2F7D501C401B695A79597958795BC0103
:103DD000CD01640D751D861D971DA50194010E94DE
:103DE00099A836C023E0210FD501C40104C0880F73
:103DF000991FAA1FBB1F2A95D2F79C01AD01B6954A
:103E0000A79597958795BC01CD01640D751D861DFD
:103E1000971D0E9499A81CC02D5FD501C40104C044
:103E2000880F991FAA1FBB1F2A95D2F79C01AD01CD
:103E3000B695A79597958795BC01CD01640D751D25
:103E4000861D971D0E9499A82150310941095109E9
:103E5000832F8F701295107F182B1F832E8381E084
:103E600018C080E016C080E014C0D501C401880FDE
:103E7000991FAA1FBB1F880F991FAA1FBB1F880F5E
:103E8000991FAA1FBB1F481A590A6A0A7B0A19EF11
:103E90008BCFDF91CF911F910F91FF90EF90DF902B
:103EA000CF90BF90AF909F908F907F906F905F90DA
:103EB0004F9008950F931F93CF93DF93EC018B01E5
:103EC000009709F403C1803C910529F460E180E08A
:103ED0000E94D312FBC0C03881E0D80729F462E009
:103EE00080E00E94D312F2C0C115E1E0DE0729F4A0
:103EF00061E080E00E94D312E9C0C038F3E0DF0740
:103F000029F461E081E00E94D312E0C0C03983E06F
:103F1000D80729F461E082E00E94D312D7C0C1150E
:103F2000E2E0DE0729F462E081E00E94D312CEC015
:103F3000C034F2E0DF0729F462E082E00E94D3128D
:103F4000C5C0C03283E0D80729F464E082E00E9453
:103F5000D312BCC0C115E8E0DE0729F461E083E0BC
:103F60000E94D312B3C0C115F9E0DF0729F461E064
:103F700084E00E94D312AAC0C1158AE0D80729F4B0
:103F800061E085E00E94D312A1C0C115EBE0DE071D
:103F900029F461E086E00E94D31298C0C034F8E0B2
:103FA000DF0729F462E083E00E94D3128FC0C0349F
:103FB00089E0D80729F462E084E00E94D31286C029
:103FC000C034EAE0DE0729F462E085E00E94D31203
:103FD0007DC0C039F8E0DF0729F464E083E00E9487
:103FE000D31274C0C03989E0D80729F464E084E0B2
:103FF0000E94D3126BC0C039EAE0DE0729F464E006
:1040000085E00E94D31262C0C039FBE0DF0729F4CB
:1040100064E086E00E94D31259C0C03C88E0D80713
:1040200029F468E083E00E94D31250C0C03CE9E06C
:10403000DE0729F468E084E00E94D31247C0C03A4A
:10404000F8E0DF0729F460E183E00E94D3123EC06C
:10405000C03A89E0D80729F460E184E00E94D312D5
:1040600035C0C03AEAE0DE0729F460E185E00E944D
:10407000D3122CC0C03AFBE0DF0729F460E186E0F0
:104080000E94D31223C0C03B88E0D80729F460E225
:1040900083E00E94D3121AC0C03BE9E0DE0729F496
:1040A00060E284E00E94D31211C0C038F4E0DF0760
:1040B00029F460E483E00E94D31208C0C03A84E08F
:1040C000D80721F460E485E00E94D3128D818F73BC
:1040D0008D83F80194818581892B9681992311F034
:1040E00098E001C090E0892B8D83F80140815181D7
:1040F0006281738100E016E32EE631E0CE01D0DD6F
:104100009C8198609C839C8190619C83DF91CF917E
:104110001F910F910895811118C09091F032992349
:1041200089F09FB7F894EAE5F3E3208121502083DA
:104130009FBF08C09FB7F894EAE5F3E320812F5FA3
:1041400020839FBF8093F03208959091F03299239D
:1041500089F3F8CF0F93E8ECF4E080818F7D8083C2
:1041600080818F7D8083E4E9F2E302E00593109281
:1041700096321092973200E2069300E40693ECE840
:10418000F2E300E2069300E4069310926B33109280
:104190006C3310926D3310926E331092693310921B
:1041A0006A33109270320F9108950F9385E08093D7
:1041B0007032E5E9F2E304E00593EDE8F2E304E0B0
:1041C00005930F9108950F9383E0809370321092BE
:1041D000963210929732E4E9F2E302E006930F91EF
:1041E0000895E0916B33F0916C33309709F0199595
:1041F00008950F93CF93DF9380917032833019F439
:10420000F0DFA8DF60C080916C3290916D32C09178
:104210006933D0916A33C81BD90B71F520916E3286
:1042200030916F32820F931F80936E3290936F3272
:1042300020916533309166338217930721F0809186
:104240009130882341F084E080937032ECE8F2E30F
:1042500002E0069338C0E0916D33F0916E333097F1
:1042600099F01995882381F010926C3210926D327A
:10427000C0916933D0916A33C034D10528F01092CF
:104280009130C0E4D0E003C081E080939130C093CE
:104290009632D093973280916C3290916D3220910A
:1042A000673330916833280F391F20939832309349
:1042B0009932C80FD91FC0936C32D0936D32E4E9A4
:1042C000F2E302E00693DF91CF910F910895FC0194
:1042D0008181877090E0FC013197E730F10520F48F
:1042E000E250FF4F0C94BBA888E090E0089580E274
:1042F00090E0089580E490E0089580E890E00895CB
:1043000080E091E0089580E092E008958FEF93E0DF
:10431000089580E190E00895282F2F7030E0220F5B
:10432000331F992787FD90958827990F881F992714
:10433000820F931F02979C01220F331F220F331FFE
:10434000220F331F820F931F8E529E4C08950F939E
:10435000CF938091CC0480FF63C081E08093CC0434
:10436000ECE8F2E300E80693E4E9F2E300E8069300
:104370008093CA04ECE8F2E300E106938091703286
:10438000882329F08350823008F42BDFE3DE80910C
:104390008E3290918F32089709F044C088E0ECE2A9
:1043A000F2E3AFE5B3E301900D928A95E1F7E8EC13
:1043B000F4E08081806280838081806280830E94BB
:1043C0000019C82F811103C0F0DEC1E02CC080911C
:1043D0005F3388236CF410926E3210926F32109219
:1043E0006C3210926D3282E08093703202DF1BC01B
:1043F0002091653330916633232B11F4E4DE13C032
:1044000010926E3210926F3210926C3210926D32A6
:1044100081E080937032ECE8F2E302E0069303C09F
:10442000C0E001C0C1E08C2FCF910F910895BF92E1
:10443000CF92DF92EF92FF920F931F93CF93DF9370
:10444000B82E6ADFEC011B2D111F1127111F8B2DB8
:104450008F70E82EF12CEE0CFF1CE10EF11CC70151
:10446000880F991F880F991F880F991F9C01245747
:104470003D4C7901C9012BDF6C01112309F45BC0AC
:10448000D70116962D913C9117978D819E81280F0B
:10449000391F2D833E838B819C8128173907C9F1F1
:1044A000FC01E21BF30B9F012115F4E03F0740F0F4
:1044B0002FEF33E0C901B6010E9485A8281B390BF4
:1044C000888181FF0AC0C901B6010E9485A841E028
:1044D000892B09F040E0942F01C090E0888190FB87
:1044E00081F98883D70116961D921C921797129610
:1044F0002D933C93139729813A818D819E81820F60
:10450000931F14968D939C931597F70102E00693E1
:1045100098C0888181FF87C08D7F8883D7011696D8
:104520001D921C92179712961D921C921397F701D9
:1045300002E0069386C0D70112960D911C91139745
:10454000888182FF15C0E981FA812D813E818B81AE
:104550009C81B6010E9485A8B0E4BB9EB0011124E5
:104560006E5A7F4CAC01CF01820F931F0E94CEA8E0
:104570002D813E81200F311F2D833E83EB81FC81F5
:10458000E217F30710F4ED83FE83D70116968D91A1
:104590009C9117978017910709F045C08D819E81E6
:1045A000E817F90709F43FC0E81BF90BE115B4E07F
:1045B000FB0748F0EFEFF3E0CF01B6010E9485A8BA
:1045C000E81BF90B06C0CF01B6010E9485A8E81BC5
:1045D000F90BD70112961D921C921397EC15FD054D
:1045E00078F4888184608883B0E4BB9EC001112484
:1045F0008E5A9F4CF70184839583C682D7820FC061
:1046000029813A818D819E81820F931FD701149653
:104610008D939C9315971696ED93FC931797F7013E
:1046200002E006930EC0888180FF0BC08E7F8883D6
:10463000EF81F885309729F06D817E814B2D80E0E8
:104640001995DF91CF911F910F91FF90EF90DF901F
:10465000CF90BF900895CF93CFB7F894E1ECF4E0FA
:1046600080818E7F80831092C00410820E9421136B
:1046700080E051DD8FB7F894EEE5F3E3908191503F
:1046800090838FBFCFBFCF910895CF93CFB7F894CA
:1046900081E041DDEAECF4E080E4808380E2808325
:1046A000E1ECF4E0808181608083A9ECB4E08C913E
:1046B00082608C93E8ECF4E08081806480838C914C
:1046C00081608C93808180688083CFBFCF91089573
:1046D000CF93DF93C0E6D0E0188280E30E94EA1215
:1046E000E0ECF4E080818064808381E08883CFB750
:1046F000F89480E090E0FC01EE0FFF1FEE0FFF1F2B
:10470000EE0FFF1FE357FD4C108201968C30910590
:1047100091F780E090E0FC01EE0FFF1FEE0FFF1F0E
:10472000EE0FFF1FE80FF91FEE52FE4C20812E7F87
:10473000208301968A30910571F76AE170E082E08A
:10474000F3D88F3F19F08093FA0403C08FE1809370
:10475000FA046BE170E082E0E7D88F3F19F08093B4
:10476000FB0403C08FE18093FB04E0ECF4E0808164
:104770008560808380818068808380818061808380
:104780008CE892E3868397838081806280838FEFB9
:104790008093C504E8ECF4E080818160808310920E
:1047A000F0328FB7F894EEE5F3E390819F5F90834A
:1047B0008FBF6BDFCFBFDF91CF91089580E0089569
:1047C0008093C30408958091C30408958091EC32CE
:1047D0009091ED32089580E090E0089580936733E2
:1047E000909368336093693370936A330895E82F28
:1047F000EF70F0E0EE0FFF1F992787FD9095882757
:10480000990F881F9927E80FF91FEE0FFF1FEE0F72
:10481000FF1FEE0FFF1FE457FD4C8181807C09F0E4
:1048200043C06370613029F010F480E403C080E875
:1048300001C080EC40385105E1F050F440325105A0
:10484000A1F04034510599F04031510561F419C08F
:10485000411592E0590789F04F3F93E0590779F0ED
:104860004115514041F020E00DC022E00BC023E093
:1048700009C024E007C025E005C026E003C027E00A
:1048800001C021E0118296E09083822B8183818197
:10489000807C803C21F481818770873039F0818170
:1048A0008062818381E0089580E0089581E0089529
:1048B000E82FEF70F0E0EE0FFF1F992787FD90952E
:1048C0008827990F881F9927E80FF91FEE0FFF1F00
:1048D000EE0FFF1FEE0FFF1FE457FD4C818182FB9F
:1048E000882780F90895E82FEF70F0E0EE0FFF1FA2
:1048F000282F332727FD30952227330F221F3327F8
:10490000E20FF31FEE0FFF1FEE0FFF1FEE0FFF1F53
:10491000E457FD4C918192FF0EC091819B7F918362
:10492000FBDCFC01808180FF06C08E7F80830780D6
:10493000F085E02D199581E008957F928F929F92E6
:10494000AF92BF92CF92DF92EF92FF920F931F939D
:10495000CF93DF93982E862E5A016901DDDC7C010E
:10496000792C771C7724771CC92DCF70D0E0CC0F21
:10497000DD1FC70DD11DCC0FDD1FCC0FDD1FCC0FF0
:10498000DD1FC457DD4C8981807C09F44CC08981CE
:10499000807C803C19F0898182FD47C08FB7F894F4
:1049A000F701908190FF03C08FBF712C3FC0F701CA
:1049B0009081916090838FBFF701A182B282C38200
:1049C000D4821582168207831087811006C091E079
:1049D000C114D10419F090E001C091E0F701808189
:1049E00090FB81F98B7F8083772019F01E821F82D4
:1049F00015C08981807C803C69F4CE0168DCBC01F3
:104A0000C6010E9485A8892B29F0F70180818E7F3D
:104A100080830CC01A821B821E821F82892D07DDB3
:104A20007724739403C0712C01C0712C872DDF9102
:104A3000CF911F910F91FF90EF90DF90CF90BF909B
:104A4000AF909F908F907F900895FF920F931F9348
:104A5000CF93DF93182FF82EFF1CFF24FF1CC82FC5
:104A6000CF70D0E0CC0FDD1FCF0DD11DCC0FDD1FDF
:104A7000CC0FDD1FCC0FDD1FC457DD4C4DDCDC013E
:104A8000FE0102E005938C9180FF12C08E7F8C9313
:104A90001796ED91FC911897309751F0FF2019F07F
:104AA0006E817F8102C06A817B81412F81E01995EF
:104AB000DF91CF911F910F91FF900895CF93C82F51
:104AC000C4DFEC2FEF70F0E0EE0FFF1F8C2F992763
:104AD00087FD90958827990F881F9927E80FF91F60
:104AE000EE0FFF1FEE0FFF1FEE0FFF1FE457FD4CF1
:104AF0001182CF9108950F93E82FEF70F0E0EE0F41
:104B0000FF1F282F332727FD30952227330F221F21
:104B10003327E20FF31FEE0FFF1FEE0FFF1FEE0F05
:104B2000FF1FE457FD4C91819460918301E006934F
:104B30008CDF81E00F9108951F920F920FB60F92B4
:104B400011240BB60F920F932F933F934F935F93C4
:104B50006F937F938F939F93AF93BF93CF93EF9375
:104B6000FF938091CB0488233CF480E88093CA04AF
:104B70000E94D11864D68FC08091CB0482FF20C0E0
:104B800084E08093CA048091943286FF84C080912F
:104B9000CC0481FD80C0DBDB81117DC0809170324F
:104BA000813011F410DB77C0843009F074C0E5E97E
:104BB000F2E304E00593EDE8F2E304E005936BC053
:104BC0008091CB0481FF62C082E08093CA0480910F
:104BD0008C3286FF60C08091CC0481FD5CC0B7DB65
:104BE000811159C080917032823041F484E0809309
:104BF0007032ECE8F2E302E006934DC0833009F036
:104C00004AC0E5E9F2E304E00593EDE8F2E304E0ED
:104C1000059341C080E18093CA04C1E08C2F15DF69
:104C20008C2F806812DFCF5FC530C1F70E94A618B5
:104C30001092C304EDE8F2E3108296E090938C3278
:104C400083E48083E5E9F2E31082909394328083D9
:104C50008CE292E380939032909391327BDA1BC086
:104C60008091CB0486FF07C080E48093CA0480E073
:104C700052DADFD510C08091CB0485FF0CC080E2F2
:104C80008093CA0481E047DAD7D505C08091CB0470
:104C900084FDC0CFE5CFFF91EF91CF91BF91AF9150
:104CA0009F918F917F916F915F914F913F912F9144
:104CB0000F910F900BBE0F900FBE0F901F90189585
:104CC0001F920F920FB60F9211240BB60F920F93F3
:104CD0001F932F933F934F935F936F937F938F9384
:104CE0009F93AF93BF93CF93DF93EF93FF93809105
:104CF000CC0481FD03C02BDB8111B9C082E080931D
:104D0000CC048091C5048195880FECE8F2E3E81BA0
:104D1000F109208131812C583243369527953695FB
:104D2000279536952795822F869520FF02C090E81B
:104D300001C090E0890FE82FEF70F0E0EE0FFF1F49
:104D4000282F332727FD30952227330F221F3327A3
:104D5000E20FF31FEE0FFF1FEE0FFF1FEE0FFF1FFF
:104D6000E457FD4C908195FF82C000E206938111CB
:104D700079C080917032843019F433DAEBD977C07E
:104D8000C0918E32D0918F328091693390916A3385
:104D900000916C3210916D3298012C0F3D1F8217DB
:104DA000930718F4EC01C01BD10B809167339091ED
:104DB0006833AE016CE272E3800F911F0E94CEA8AF
:104DC0000C0F1D1F00936C3210936D32C034D1054F
:104DD00069F480916E3290916F32800F911F209113
:104DE0006533309166338217930788F000936933F7
:104DF00010936A33E0916D33F0916E33309729F060
:104E00001995811102C0D1D932C0DDD930C080914D
:104E1000693390916A3308171907F9F4E0916D33FB
:104E2000F0916E33309711F4C0D921C019958111DA
:104E300002C0BBD91CC020916E3230916F3280917C
:104E40006C3290916D32820F931F80936E329093EB
:104E50006F3210926C3210926D32ECE8F2E302E0A5
:104E6000069305C0803811F4C4D901C0E0DAFF917F
:104E7000EF91DF91CF91BF91AF919F918F917F91F2
:104E80006F915F914F913F912F911F910F910F90D3
:104E90000BBE0F900FBE0F901F9018950E94CD185B
:104EA000EEEFF0E082E08CBF19940895FC010190D0
:104EB0000020E9F73197BF01681B790B0C94AF17FD
:104EC0000895CF93DF93EC01F1DF88ED92E2EEDFFE
:104ED0006BED72E2CE010E94D7A8892B19F488ED00
:104EE00092E2E4DFDF91CF91089520910C216223BB
:104EF00009F0E7CF089580930C210895CF92DF92B7
:104F0000EF92FF920F931F93CF93DF93082F10E040
:104F1000000F111FE801CD58DC4C888199810E9457
:104F20005213B80161597C4CFB01C080D12CE12C9B
:104F3000F12C00E412E42FE030E040E08881998118
:104F40000E946913E881F98180818064808381E017
:104F5000DF91CF911F910F91FF90EF90DF90CF9055
:104F60000895BF92CF92DF92EF92FF920F931F931B
:104F7000CF93DF93B62EC82FD0E06E01CC0CDD1C92
:104F8000860101591C4CA6014D585C4C7A01B801B0
:104F9000DA018D919C910E948913F601E059FC4C35
:104FA0008081E82FE695E695E695B0E2EB9FF0016B
:104FB0001124FA5F877021E030E0A90102C0440F9C
:104FC000551F8A95E2F74683D701ED91FC91119721
:104FD000B382ED91FC9182818823ECF78AEF838381
:104FE000FE01EE0FFF1FED58FC4C0190F081E02D0B
:104FF00082818823ECF7CE01880F991FDC01A0592C
:10500000BC4C2C91A22FA695A695A69530E2A39F05
:10501000D0011124BA5F277041E050E0BA0102C00C
:10502000660F771F2A95E2F715966C932FEF23836F
:10503000FC01ED58FC4C0190F081E02D8281882329
:10504000ECF7F3808FEF8383CC0FDD1FCD58DC4C62
:10505000E881F98182818823ECF7C381B801CF010F
:105060000E949F138C2F90E0982F88278F0D911D01
:10507000DF91CF911F910F91FF90EF90DF90CF9034
:10508000BF9008959F92AF92BF92CF92DF92EF921E
:10509000FF920F931F93CF93DF93962EA42EB52EDE
:1050A000082F10E06801CC0CDD1CA60141595C4CB6
:1050B0007A01E601CD58DC4CBA01888199810E94C1
:1050C0008913F601E059FC4C8081E82FE695E695BE
:1050D000E69550E2E59FF0011124FA5F877021E028
:1050E00030E0B90102C0660F771F8A95E2F7668348
:1050F000E881F9819382E881F98182818823ECF744
:10510000C801880F991FDC01A059BC4C2C91A22F1B
:10511000A695A695A69570E2A79FD0011124BA5F27
:10512000277041E050E0BA0102C0660F771F2A9550
:10513000E2F715966C93A382FC01ED58FC4C0190AC
:10514000F081E02D82818823ECF7B382F801EE0F25
:10515000FF1FED58FC4C0190F081E02D82818823E7
:10516000ECF7B701CF010E949F13DF91CF911F9100
:105170000F91FF90EF90DF90CF90BF90AF909F90F6
:105180000895CF93C82F48E250E06FEB7BDF40E0FB
:1051900053E567E070E0415051096109710941151B
:1051A000510561057105B9F740E150E06FEB8C2FB7
:1051B00069DF40E059E06DE370E041505109610959
:1051C00071094115510561057105B9F749E250E0D2
:1051D0006FEB8C2F57DF40E053E567E070E0415004
:1051E0005109610971094115510561057105B9F749
:1051F00041E150E06FEB8C2F45DFCF910895CF93C5
:10520000C82F89EE92E25DDE40E85AE166E070E088
:105210004150510961097109411551056105710537
:10522000B9F741E050E06CEB8C2F2CDF80E090E090
:10523000019681152AEF9207D9F741E150E06FEB13
:105240008C2F20DF40E450E66AE070E041505109C5
:10525000610971094115510561057105B9F749E207
:1052600050E06FEB8C2F0EDF40E858E361E070E018
:1052700041505109610971094115510561057105D7
:10528000B9F742E050E06CEB8C2FFCDE4EEF57E0BC
:105290006FEB8C2FF7DE40E85AE166E070E041509A
:1052A0005109610971094115510561057105B9F788
:1052B00049EA5AEF6FEB8C2FE5DE80E090E0019633
:1052C00081152AEF9207D9F74EEF50E06FEB8C2F44
:1052D000D9DE80E090E0019681152AEF9207D9F798
:1052E00041E050E06CEB8C2FCDDE80E090E0019649
:1052F00081152AEF9207D9F74BE453E067EB8C2F27
:10530000C1DECF910895CF93C82F8BEF92E2D9DD04
:1053100043E453E067EB8C2FB5DE20E030E02F5FF5
:105320003F4F21158AEF3807D1F741E050E06CEB91
:105330008C2FA8DE20E030E02F5F3F4F21158AEF51
:105340003807D1F748E250E06FEB8C2F9BDE20E06E
:1053500030E02F5F3F4F21158AEF3807D1F740E14A
:1053600050E06FEB8C2F8EDE80E898E3A1E0B0E098
:105370000197A109B1090097A105B105C9F7CF911E
:105380000895CF93C82F4AEF50E064ED7BDE60EBC9
:105390008C2FE7DDCF910895CF93C82F40E854E8D4
:1053A0006EE170E0415051096109710941155105E3
:1053B00061057105B9F781E08093F1328C2FE1DF4F
:1053C0008832984229F08EE093E27BDD80E01DC1B7
:1053D00046E152E061EB8C2F55DE4CE956E062EB82
:1053E0008C2F50DE40E258E263EB8C2F4BDE48E31B
:1053F00054E064EB8C2F46DE40E857E065EB8C2FE1
:1054000041DE47E050E266EB8C2F3CDE4AE054E19F
:1054100069EC8C2F37DE43E050E06EED8C2F32DEEE
:1054200044E050E066ED8C2F2DDE40E350EC6AEB5B
:105430008C2F28DE48E050E06BEB8C2F23DE41E020
:1054400050E069EB8C2F1EDE41E050E064EC8C2FC5
:1054500019DE40E45DE063E070E04150510961090C
:1054600071094115510561057105B9F742E053E035
:1054700067EB8C2F07DE40E050E068EB8C2F02DEFC
:1054800042E050E06CEB8C2FFDDD80E090E0019677
:1054900081152AEF9207D9F740EB54E06FEB8C2F80
:1054A000F1DD80E090E0019681152AEF9207D9F7AF
:1054B00046ED51E06FEB8C2FE5DD80E090E001964A
:1054C00081152AEF9207D9F742E453E067EB8C2F5E
:1054D000D9DD80E090E0019681152AEF9207D9F797
:1054E00040E050E068EB8C2FCDDD80E090E001964D
:1054F00081152AEF9207D9F742E050E06CEB8C2F30
:10550000C1DD80E090E0019681152AEF9207D9F77E
:105510004EEF54E06FEB8C2FB5DD80E090E001960C
:1055200081152AEF9207D9F74EE550E06FEB8C2FEB
:10553000A9DD80E090E0019681152AEF9207D9F766
:1055400044E457E46FEB8C2F9DDD80E090E0019602
:1055500081152AEF9207D9F74EEF57E06FEB8C2FAA
:1055600091DD80E090E0019681152AEF9207D9F74E
:1055700049EA5AE66FEB8C2F85DD80E090E00196DA
:1055800081152AEF9207D9F74EEF5AE06FEB8C2F77
:1055900079DD20E030E02F5F3F4F21158AEF38079B
:1055A000D1F744E152E56FEB8C2F6CDD20E030E069
:1055B0002F5F3F4F21158AEF3807D1F74EEF50E0AC
:1055C0006FEB8C2F5FDD20E030E02F5F3F4F211528
:1055D0008AEF3807D1F745E351E06FEB8C2F52DDAE
:1055E00020E030E02F5F3F4F21158AEF3807D1F7D9
:1055F00045E550E06FEB8C2F45DD80E090E00196B3
:1056000081152AEF9207D9F781E0CF91089584E1BF
:1056100080936F3389E08093703380EC98E08093BF
:1056200073339093743380E069DC80E0B5CE0895E5
:10563000E82FF0E0EE0FFF1FE059FC4C8081E82FCF
:10564000E695E695E69540E2E49FF0011124FA5FC5
:10565000877021E030E0A90102C0440F551F8A95F0
:10566000E2F745830895E82FF0E0EE0FFF1FE059C1
:10567000FC4C8081E82FE695E695E69540E2E49FB4
:10568000F0011124FA5F877021E030E0A90102C027
:10569000440F551F8A95E2F746830895813099F4A7
:1056A00082E293E20EDC84E0E0E0F6E0868380E0D4
:1056B00090E00196803A2FE09207D9F784E0E0E08D
:1056C000F6E085830895823099F48DE293E2F9DB68
:1056D00080E1E0E0F6E0868380E090E00196803AA9
:1056E0002FE09207D9F780E1E0E0F6E085830895A6
:1056F00088E393E2E6CB089581E0E0E2F6E086837A
:1057000080E090E00196803A2FE09207D9F781E09F
:10571000E0E2F6E085830895CF93C42F813051F401
:1057200080EA9BE00E94421E6C2F80EA9BE00E9470
:10573000421E03C086E493E2C4DBCF91089581301A
:1057400051F4606880EA9BE00E94421E80EA9BE080
:105750000C944A1E089586E493E2B3DB80E008953A
:10576000C0EAD0E017E01A830E9463121A831092F5
:10577000593310925A3310925B3310925C3310926B
:105780005D3381E080935E330E94B61B76D07894BF
:105790000E94B5130E94B6133ADF0E94610F8093F6
:1057A0004F2F0E94C4A1E0EAF6E080E4858380E800
:1057B00086830E94A31889D68091F432882321F031
:1057C00080E01DDD1092F4328091F332882321F0C5
:1057D00080E099DD1092F33281E08093F532809180
:1057E0003533882321F00E9457A61092353380E08C
:1057F00090E00196803A2FE09207D9F780914F2FE1
:1058000081110E94C1118091F532882341F367D63E
:105810008091F432882321F01092F43280E0EFDCA2
:105820008091F3328823D9F280E06DDD1092F3325B
:10583000D6CF0C94B61308950C94B71308958091A5
:10584000F232882321F00E94E6230C94C0130895BD
:1058500091E09093F2320E94E6A781E008951092C1
:10586000F2320C94F1A70895662319F00C94B81342
:1058700008950C94B9130895089543E050E060E84A
:1058800080E496E00E942A1343E050E060E280E466
:1058900096E00E942A1340E050E060E480E496E045
:1058A0000E942A1343E050E060E180E496E00E9409
:1058B0002A1343E050E062E080E296E00E942A135F
:1058C00041E050E062E080E096E00E942A1343E06D
:1058D00050E064E080E096E00E942A1343E050E04C
:1058E00061E080EA96E00E942A1343E050E060E223
:1058F00080E696E00E942A1340E050E064E080E6F3
:1059000096E00E942A1341E050E062E080EA96E0CF
:105910000E942A1341E050E060E480EA96E00E9491
:105920002A1341E050E060E880EA96E00E942A13E2
:1059300043E050E064E080E496E00E942A1343E0F4
:1059400050E068E080E496E00E942A136DE071E286
:1059500080EA9BE00E945A1F811103C08FE493E20A
:10596000B0DA43E050E061E080E296E00C942A1364
:105970000895CF93DF93CDB7DEB7A897CDBFDEBF35
:10598000FC01DE011196CE01899624912D932223EC
:1059900021F03196A817B907C1F718A6CE010196D4
:1059A00090DAA896CDBFDEBFDF91CF910895CF9357
:1059B000DF93D82FC62F8EE593E283DA89ED9EE040
:1059C000D8DFCC2319F0C13029F008C085ED9EE066
:1059D000D0DF07C081ED9EE0CCDF03C087EC9EE006
:1059E000C8DFDD2319F0D13069F01AC087E99EE0E5
:1059F000C0DF81E08093F8321092F9328FEF80930C
:105A00003A2111C081EB9EE0B4DF8FEF80933A2101
:105A100081E08093F3321092F8321092F93203C091
:105A200087EC9EE0A6DFDF91CF910895EF92FF9281
:105A30000F931F93CF93DF93CDB7DEB76497CDBF9E
:105A4000DEBF8C017B01009709F445C0FF926F9384
:105A50001F938F938BE693E29F938F93CE010196D2
:105A60009F938F930E940DA9CDBFDEBF073E93E0A9
:105A7000190799F4FF92EF9283E793E29F938F9334
:105A8000CE0101969F938F930E940DA90F900F90C6
:105A90000F900F900F900F9004C080E290E08983E8
:105AA0009A8387EEE81683E0F80691F41F930F932C
:105AB00083E793E29F938F93CE0101969F938F93F9
:105AC0000E940DA90F900F900F900F900F900F90C4
:105AD000CE010196F6D96496CDBFDEBFDF91CF919E
